{
  "contractName": "IDC",
  "abi": [
    {
      "inputs": [],
      "stateMutability": "payable",
      "type": "constructor",
      "payable": true
    },
    {
      "anonymous": false,
      "inputs": [
        {
          "indexed": true,
          "internalType": "address",
          "name": "owner",
          "type": "address"
        },
        {
          "indexed": true,
          "internalType": "address",
          "name": "spender",
          "type": "address"
        },
        {
          "indexed": false,
          "internalType": "uint256",
          "name": "value",
          "type": "uint256"
        }
      ],
      "name": "Approval",
      "type": "event"
    },
    {
      "anonymous": false,
      "inputs": [
        {
          "indexed": true,
          "internalType": "address",
          "name": "from",
          "type": "address"
        },
        {
          "indexed": true,
          "internalType": "address",
          "name": "to",
          "type": "address"
        },
        {
          "indexed": false,
          "internalType": "uint256",
          "name": "value",
          "type": "uint256"
        }
      ],
      "name": "Transfer",
      "type": "event"
    },
    {
      "inputs": [
        {
          "internalType": "address",
          "name": "owner",
          "type": "address"
        },
        {
          "internalType": "address",
          "name": "spender",
          "type": "address"
        }
      ],
      "name": "allowance",
      "outputs": [
        {
          "internalType": "uint256",
          "name": "",
          "type": "uint256"
        }
      ],
      "stateMutability": "view",
      "type": "function",
      "constant": true
    },
    {
      "inputs": [
        {
          "internalType": "address",
          "name": "spender",
          "type": "address"
        },
        {
          "internalType": "uint256",
          "name": "amount",
          "type": "uint256"
        }
      ],
      "name": "approve",
      "outputs": [
        {
          "internalType": "bool",
          "name": "",
          "type": "bool"
        }
      ],
      "stateMutability": "nonpayable",
      "type": "function"
    },
    {
      "inputs": [
        {
          "internalType": "address",
          "name": "account",
          "type": "address"
        }
      ],
      "name": "balanceOf",
      "outputs": [
        {
          "internalType": "uint256",
          "name": "",
          "type": "uint256"
        }
      ],
      "stateMutability": "view",
      "type": "function",
      "constant": true
    },
    {
      "inputs": [],
      "name": "decimals",
      "outputs": [
        {
          "internalType": "uint8",
          "name": "",
          "type": "uint8"
        }
      ],
      "stateMutability": "view",
      "type": "function",
      "constant": true
    },
    {
      "inputs": [
        {
          "internalType": "address",
          "name": "spender",
          "type": "address"
        },
        {
          "internalType": "uint256",
          "name": "subtractedValue",
          "type": "uint256"
        }
      ],
      "name": "decreaseAllowance",
      "outputs": [
        {
          "internalType": "bool",
          "name": "",
          "type": "bool"
        }
      ],
      "stateMutability": "nonpayable",
      "type": "function"
    },
    {
      "inputs": [
        {
          "internalType": "bytes32",
          "name": "",
          "type": "bytes32"
        }
      ],
      "name": "executed",
      "outputs": [
        {
          "internalType": "bool",
          "name": "",
          "type": "bool"
        }
      ],
      "stateMutability": "view",
      "type": "function",
      "constant": true
    },
    {
      "inputs": [
        {
          "internalType": "address",
          "name": "spender",
          "type": "address"
        },
        {
          "internalType": "uint256",
          "name": "addedValue",
          "type": "uint256"
        }
      ],
      "name": "increaseAllowance",
      "outputs": [
        {
          "internalType": "bool",
          "name": "",
          "type": "bool"
        }
      ],
      "stateMutability": "nonpayable",
      "type": "function"
    },
    {
      "inputs": [],
      "name": "name",
      "outputs": [
        {
          "internalType": "string",
          "name": "",
          "type": "string"
        }
      ],
      "stateMutability": "view",
      "type": "function",
      "constant": true
    },
    {
      "inputs": [],
      "name": "symbol",
      "outputs": [
        {
          "internalType": "string",
          "name": "",
          "type": "string"
        }
      ],
      "stateMutability": "view",
      "type": "function",
      "constant": true
    },
    {
      "inputs": [],
      "name": "totalSupply",
      "outputs": [
        {
          "internalType": "uint256",
          "name": "",
          "type": "uint256"
        }
      ],
      "stateMutability": "view",
      "type": "function",
      "constant": true
    },
    {
      "inputs": [
        {
          "internalType": "address",
          "name": "from",
          "type": "address"
        },
        {
          "internalType": "address",
          "name": "to",
          "type": "address"
        },
        {
          "internalType": "uint256",
          "name": "amount",
          "type": "uint256"
        }
      ],
      "name": "transferFrom",
      "outputs": [
        {
          "internalType": "bool",
          "name": "",
          "type": "bool"
        }
      ],
      "stateMutability": "nonpayable",
      "type": "function"
    },
    {
      "inputs": [
        {
          "internalType": "address",
          "name": "receiver",
          "type": "address"
        },
        {
          "internalType": "uint256",
          "name": "amount",
          "type": "uint256"
        }
      ],
      "name": "mint",
      "outputs": [],
      "stateMutability": "nonpayable",
      "type": "function"
    },
    {
      "inputs": [
        {
          "internalType": "address",
          "name": "_from",
          "type": "address"
        },
        {
          "internalType": "address",
          "name": "_to",
          "type": "address"
        },
        {
          "internalType": "uint256",
          "name": "_amount",
          "type": "uint256"
        },
        {
          "internalType": "uint256",
          "name": "_nonce",
          "type": "uint256"
        },
        {
          "internalType": "bytes[2]",
          "name": "_sigs",
          "type": "bytes[2]"
        }
      ],
      "name": "transfer",
      "outputs": [],
      "stateMutability": "nonpayable",
      "type": "function"
    },
    {
      "inputs": [
        {
          "internalType": "address",
          "name": "to",
          "type": "address"
        },
        {
          "internalType": "uint256",
          "name": "amount",
          "type": "uint256"
        }
      ],
      "name": "transfer",
      "outputs": [
        {
          "internalType": "bool",
          "name": "",
          "type": "bool"
        }
      ],
      "stateMutability": "nonpayable",
      "type": "function"
    },
    {
      "inputs": [
        {
          "internalType": "address",
          "name": "_from",
          "type": "address"
        },
        {
          "internalType": "address",
          "name": "_to",
          "type": "address"
        },
        {
          "internalType": "uint256",
          "name": "_amount",
          "type": "uint256"
        },
        {
          "internalType": "uint256",
          "name": "_nonce",
          "type": "uint256"
        }
      ],
      "name": "getTxHash",
      "outputs": [
        {
          "internalType": "bytes32",
          "name": "",
          "type": "bytes32"
        }
      ],
      "stateMutability": "view",
      "type": "function",
      "constant": true
    }
  ],
  "bytecode": "0x60806040526040518060400160405280600381526020017f49444300000000000000000000000000000000000000000000000000000000008152506040518060400160405280600381526020017f4944430000000000000000000000000000000000000000000000000000000000815250816003908051906020019062000088929190620000eb565b508060049080519060200190620000a1929190620000eb565b50505033600660006101000a81548173ffffffffffffffffffffffffffffffffffffffff021916908373ffffffffffffffffffffffffffffffffffffffff16021790555062000200565b828054620000f990620001ca565b90600052602060002090601f0160209004810192826200011d576000855562000169565b82601f106200013857805160ff191683800117855562000169565b8280016001018555821562000169579182015b82811115620001685782518255916020019190600101906200014b565b5b5090506200017891906200017c565b5090565b5b80821115620001975760008160009055506001016200017d565b5090565b7f4e487b7100000000000000000000000000000000000000000000000000000000600052602260045260246000fd5b60006002820490506001821680620001e357607f821691505b60208210811415620001fa57620001f96200019b565b5b50919050565b61252c80620002106000396000f3fe608060405234801561001057600080fd5b50600436106100f55760003560e01c806340c10f1911610097578063a9059cbb11610066578063a9059cbb1461029a578063a9fcfb33146102ca578063c242c82d146102fa578063dd62ed3e1461032a576100f5565b806340c10f191461020057806370a082311461021c57806395d89b411461024c578063a457c2d71461026a576100f5565b806318160ddd116100d357806318160ddd1461016457806323b872dd14610182578063313ce567146101b257806339509351146101d0576100f5565b806306fdde03146100fa578063095ea7b3146101185780631537653314610148575b600080fd5b61010261035a565b60405161010f91906114fa565b60405180910390f35b610132600480360381019061012d91906115c4565b6103ec565b60405161013f919061161f565b60405180910390f35b610162600480360381019061015d9190611843565b61040f565b005b61016c610509565b60405161017991906118e9565b60405180910390f35b61019c60048036038101906101979190611904565b610513565b6040516101a9919061161f565b60405180910390f35b6101ba610542565b6040516101c79190611973565b60405180910390f35b6101ea60048036038101906101e591906115c4565b61054b565b6040516101f7919061161f565b60405180910390f35b61021a600480360381019061021591906115c4565b6105f5565b005b6102366004803603810190610231919061198e565b610603565b60405161024391906118e9565b60405180910390f35b61025461064b565b60405161026191906114fa565b60405180910390f35b610284600480360381019061027f91906115c4565b6106dd565b604051610291919061161f565b60405180910390f35b6102b460048036038101906102af91906115c4565b6107c7565b6040516102c1919061161f565b60405180910390f35b6102e460048036038101906102df91906119f1565b6107ea565b6040516102f1919061161f565b60405180910390f35b610314600480360381019061030f9190611a1e565b61080a565b6040516103219190611a94565b60405180910390f35b610344600480360381019061033f9190611aaf565b610845565b60405161035191906118e9565b60405180910390f35b60606003805461036990611b1e565b80601f016020809104026020016040519081016040528092919081815260200182805461039590611b1e565b80156103e25780601f106103b7576101008083540402835291602001916103e2565b820191906000526020600020905b8154815290600101906020018083116103c557829003601f168201915b5050505050905090565b6000806103f76108cc565b90506104048185856108d4565b600191505092915050565b600061041d8686868661080a565b90506005600082815260200190815260200160002060009054906101000a900460ff1615610480576040517f08c379a000000000000000000000000000000000000000000000000000000000815260040161047790611b9c565b60405180910390fd5b61048b868383610a9f565b6104ca576040517f08c379a00000000000000000000000000000000000000000000000000000000081526004016104c190611c08565b60405180910390fd5b60016005600083815260200190815260200160002060006101000a81548160ff021916908315150217905550610501868686610bcf565b505050505050565b6000600254905090565b60008061051e6108cc565b905061052b858285610e50565b610536858585610bcf565b60019150509392505050565b60006012905090565b6000806105566108cc565b90506105ea818585600160008673ffffffffffffffffffffffffffffffffffffffff1673ffffffffffffffffffffffffffffffffffffffff16815260200190815260200160002060008973ffffffffffffffffffffffffffffffffffffffff1673ffffffffffffffffffffffffffffffffffffffff168152602001908152602001600020546105e59190611c57565b6108d4565b600191505092915050565b6105ff8282610edc565b5050565b60008060008373ffffffffffffffffffffffffffffffffffffffff1673ffffffffffffffffffffffffffffffffffffffff168152602001908152602001600020549050919050565b60606004805461065a90611b1e565b80601f016020809104026020016040519081016040528092919081815260200182805461068690611b1e565b80156106d35780601f106106a8576101008083540402835291602001916106d3565b820191906000526020600020905b8154815290600101906020018083116106b657829003601f168201915b5050505050905090565b6000806106e86108cc565b90506000600160008373ffffffffffffffffffffffffffffffffffffffff1673ffffffffffffffffffffffffffffffffffffffff16815260200190815260200160002060008673ffffffffffffffffffffffffffffffffffffffff1673ffffffffffffffffffffffffffffffffffffffff168152602001908152602001600020549050838110156107ae576040517f08c379a00000000000000000000000000000000000000000000000000000000081526004016107a590611d1f565b60405180910390fd5b6107bb82868684036108d4565b60019250505092915050565b6000806107d26108cc565b90506107df818585610bcf565b600191505092915050565b60056020528060005260406000206000915054906101000a900460ff1681565b60003085858585604051602001610825959493929190611da8565b604051602081830303815290604052805190602001209050949350505050565b6000600160008473ffffffffffffffffffffffffffffffffffffffff1673ffffffffffffffffffffffffffffffffffffffff16815260200190815260200160002060008373ffffffffffffffffffffffffffffffffffffffff1673ffffffffffffffffffffffffffffffffffffffff16815260200190815260200160002054905092915050565b600033905090565b600073ffffffffffffffffffffffffffffffffffffffff168373ffffffffffffffffffffffffffffffffffffffff161415610944576040517f08c379a000000000000000000000000000000000000000000000000000000000815260040161093b90611e79565b60405180910390fd5b600073ffffffffffffffffffffffffffffffffffffffff168273ffffffffffffffffffffffffffffffffffffffff1614156109b4576040517f08c379a00000000000000000000000000000000000000000000000000000000081526004016109ab90611f0b565b60405180910390fd5b80600160008573ffffffffffffffffffffffffffffffffffffffff1673ffffffffffffffffffffffffffffffffffffffff16815260200190815260200160002060008473ffffffffffffffffffffffffffffffffffffffff1673ffffffffffffffffffffffffffffffffffffffff168152602001908152602001600020819055508173ffffffffffffffffffffffffffffffffffffffff168373ffffffffffffffffffffffffffffffffffffffff167f8c5be1e5ebec7d5bd14f71427d1e84f3dd0314c0f7b2291e5b200ac8c7c3b92583604051610a9291906118e9565b60405180910390a3505050565b600080610aab8361103c565b90506000610ada85600060028110610ac657610ac5611f2b565b5b60200201518361106c90919063ffffffff16565b905060008673ffffffffffffffffffffffffffffffffffffffff168273ffffffffffffffffffffffffffffffffffffffff161490506000610b3c87600160028110610b2857610b27611f2b565b5b60200201518561106c90919063ffffffff16565b90506000600660009054906101000a900473ffffffffffffffffffffffffffffffffffffffff1673ffffffffffffffffffffffffffffffffffffffff168273ffffffffffffffffffffffffffffffffffffffff1614905060011515831515148015610bab575060011515811515145b15610bbe57600195505050505050610bc8565b6000955050505050505b9392505050565b600073ffffffffffffffffffffffffffffffffffffffff168373ffffffffffffffffffffffffffffffffffffffff161415610c3f576040517f08c379a0000000000000000000000000000000000000000000000000000000008152600401610c3690611fcc565b60405180910390fd5b600073ffffffffffffffffffffffffffffffffffffffff168273ffffffffffffffffffffffffffffffffffffffff161415610caf576040517f08c379a0000000000000000000000000000000000000000000000000000000008152600401610ca69061205e565b60405180910390fd5b610cba838383611093565b60008060008573ffffffffffffffffffffffffffffffffffffffff1673ffffffffffffffffffffffffffffffffffffffff16815260200190815260200160002054905081811015610d40576040517f08c379a0000000000000000000000000000000000000000000000000000000008152600401610d37906120f0565b60405180910390fd5b8181036000808673ffffffffffffffffffffffffffffffffffffffff1673ffffffffffffffffffffffffffffffffffffffff16815260200190815260200160002081905550816000808573ffffffffffffffffffffffffffffffffffffffff1673ffffffffffffffffffffffffffffffffffffffff1681526020019081526020016000206000828254610dd39190611c57565b925050819055508273ffffffffffffffffffffffffffffffffffffffff168473ffffffffffffffffffffffffffffffffffffffff167fddf252ad1be2c89b69c2b068fc378daa952ba7f163c4a11628f55a4df523b3ef84604051610e3791906118e9565b60405180910390a3610e4a848484611098565b50505050565b6000610e5c8484610845565b90507fffffffffffffffffffffffffffffffffffffffffffffffffffffffffffffffff8114610ed65781811015610ec8576040517f08c379a0000000000000000000000000000000000000000000000000000000008152600401610ebf9061215c565b60405180910390fd5b610ed584848484036108d4565b5b50505050565b600073ffffffffffffffffffffffffffffffffffffffff168273ffffffffffffffffffffffffffffffffffffffff161415610f4c576040517f08c379a0000000000000000000000000000000000000000000000000000000008152600401610f43906121c8565b60405180910390fd5b610f5860008383611093565b8060026000828254610f6a9190611c57565b92505081905550806000808473ffffffffffffffffffffffffffffffffffffffff1673ffffffffffffffffffffffffffffffffffffffff1681526020019081526020016000206000828254610fbf9190611c57565b925050819055508173ffffffffffffffffffffffffffffffffffffffff16600073ffffffffffffffffffffffffffffffffffffffff167fddf252ad1be2c89b69c2b068fc378daa952ba7f163c4a11628f55a4df523b3ef8360405161102491906118e9565b60405180910390a361103860008383611098565b5050565b60008160405160200161104f9190612260565b604051602081830303815290604052805190602001209050919050565b600080600061107b858561109d565b9150915061108881611120565b819250505092915050565b505050565b505050565b6000806041835114156110df5760008060006020860151925060408601519150606086015160001a90506110d3878285856112f5565b94509450505050611119565b604083511415611110576000806020850151915060408501519050611105868383611402565b935093505050611119565b60006002915091505b9250929050565b6000600481111561113457611133612286565b5b81600481111561114757611146612286565b5b1415611152576112f2565b6001600481111561116657611165612286565b5b81600481111561117957611178612286565b5b14156111ba576040517f08c379a00000000000000000000000000000000000000000000000000000000081526004016111b190612301565b60405180910390fd5b600260048111156111ce576111cd612286565b5b8160048111156111e1576111e0612286565b5b1415611222576040517f08c379a00000000000000000000000000000000000000000000000000000000081526004016112199061236d565b60405180910390fd5b6003600481111561123657611235612286565b5b81600481111561124957611248612286565b5b141561128a576040517f08c379a0000000000000000000000000000000000000000000000000000000008152600401611281906123ff565b60405180910390fd5b60048081111561129d5761129c612286565b5b8160048111156112b0576112af612286565b5b14156112f1576040517f08c379a00000000000000000000000000000000000000000000000000000000081526004016112e890612491565b60405180910390fd5b5b50565b6000807f7fffffffffffffffffffffffffffffff5d576e7357a4501ddfe92f46681b20a08360001c11156113305760006003915091506113f9565b601b8560ff16141580156113485750601c8560ff1614155b1561135a5760006004915091506113f9565b60006001878787876040516000815260200160405260405161137f94939291906124b1565b6020604051602081039080840390855afa1580156113a1573d6000803e3d6000fd5b505050602060405103519050600073ffffffffffffffffffffffffffffffffffffffff168173ffffffffffffffffffffffffffffffffffffffff1614156113f0576000600192509250506113f9565b80600092509250505b94509492505050565b60008060007f7fffffffffffffffffffffffffffffffffffffffffffffffffffffffffffffff60001b841690506000601b60ff8660001c901c6114459190611c57565b9050611453878288856112f5565b935093505050935093915050565b600081519050919050565b600082825260208201905092915050565b60005b8381101561149b578082015181840152602081019050611480565b838111156114aa576000848401525b50505050565b6000601f19601f8301169050919050565b60006114cc82611461565b6114d6818561146c565b93506114e681856020860161147d565b6114ef816114b0565b840191505092915050565b6000602082019050818103600083015261151481846114c1565b905092915050565b6000604051905090565b600080fd5b600080fd5b600073ffffffffffffffffffffffffffffffffffffffff82169050919050565b600061155b82611530565b9050919050565b61156b81611550565b811461157657600080fd5b50565b60008135905061158881611562565b92915050565b6000819050919050565b6115a18161158e565b81146115ac57600080fd5b50565b6000813590506115be81611598565b92915050565b600080604083850312156115db576115da611526565b5b60006115e985828601611579565b92505060206115fa858286016115af565b9150509250929050565b60008115159050919050565b61161981611604565b82525050565b60006020820190506116346000830184611610565b92915050565b600080fd5b7f4e487b7100000000000000000000000000000000000000000000000000000000600052604160045260246000fd5b611677826114b0565b810181811067ffffffffffffffff821117156116965761169561163f565b5b80604052505050565b60006116a961151c565b90506116b5828261166e565b919050565b600067ffffffffffffffff8211156116d5576116d461163f565b5b602082029050919050565b600080fd5b600080fd5b600067ffffffffffffffff8211156117055761170461163f565b5b61170e826114b0565b9050602081019050919050565b82818337600083830152505050565b600061173d611738846116ea565b61169f565b905082815260208101848484011115611759576117586116e5565b5b61176484828561171b565b509392505050565b600082601f8301126117815761178061163a565b5b813561179184826020860161172a565b91505092915050565b60006117ad6117a8846116ba565b61169f565b905080602084028301858111156117c7576117c66116e0565b5b835b8181101561180e57803567ffffffffffffffff8111156117ec576117eb61163a565b5b8086016117f9898261176c565b855260208501945050506020810190506117c9565b5050509392505050565b600082601f83011261182d5761182c61163a565b5b600261183a84828561179a565b91505092915050565b600080600080600060a0868803121561185f5761185e611526565b5b600061186d88828901611579565b955050602061187e88828901611579565b945050604061188f888289016115af565b93505060606118a0888289016115af565b925050608086013567ffffffffffffffff8111156118c1576118c061152b565b5b6118cd88828901611818565b9150509295509295909350565b6118e38161158e565b82525050565b60006020820190506118fe60008301846118da565b92915050565b60008060006060848603121561191d5761191c611526565b5b600061192b86828701611579565b935050602061193c86828701611579565b925050604061194d868287016115af565b9150509250925092565b600060ff82169050919050565b61196d81611957565b82525050565b60006020820190506119886000830184611964565b92915050565b6000602082840312156119a4576119a3611526565b5b60006119b284828501611579565b91505092915050565b6000819050919050565b6119ce816119bb565b81146119d957600080fd5b50565b6000813590506119eb816119c5565b92915050565b600060208284031215611a0757611a06611526565b5b6000611a15848285016119dc565b91505092915050565b60008060008060808587031215611a3857611a37611526565b5b6000611a4687828801611579565b9450506020611a5787828801611579565b9350506040611a68878288016115af565b9250506060611a79878288016115af565b91505092959194509250565b611a8e816119bb565b82525050565b6000602082019050611aa96000830184611a85565b92915050565b60008060408385031215611ac657611ac5611526565b5b6000611ad485828601611579565b9250506020611ae585828601611579565b9150509250929050565b7f4e487b7100000000000000000000000000000000000000000000000000000000600052602260045260246000fd5b60006002820490506001821680611b3657607f821691505b60208210811415611b4a57611b49611aef565b5b50919050565b7f7478206578656375746564000000000000000000000000000000000000000000600082015250565b6000611b86600b8361146c565b9150611b9182611b50565b602082019050919050565b60006020820190508181036000830152611bb581611b79565b9050919050565b7f696e76616c696420736967000000000000000000000000000000000000000000600082015250565b6000611bf2600b8361146c565b9150611bfd82611bbc565b602082019050919050565b60006020820190508181036000830152611c2181611be5565b9050919050565b7f4e487b7100000000000000000000000000000000000000000000000000000000600052601160045260246000fd5b6000611c628261158e565b9150611c6d8361158e565b9250827fffffffffffffffffffffffffffffffffffffffffffffffffffffffffffffffff03821115611ca257611ca1611c28565b5b828201905092915050565b7f45524332303a2064656372656173656420616c6c6f77616e63652062656c6f7760008201527f207a65726f000000000000000000000000000000000000000000000000000000602082015250565b6000611d0960258361146c565b9150611d1482611cad565b604082019050919050565b60006020820190508181036000830152611d3881611cfc565b9050919050565b60008160601b9050919050565b6000611d5782611d3f565b9050919050565b6000611d6982611d4c565b9050919050565b611d81611d7c82611550565b611d5e565b82525050565b6000819050919050565b611da2611d9d8261158e565b611d87565b82525050565b6000611db48288611d70565b601482019150611dc48287611d70565b601482019150611dd48286611d70565b601482019150611de48285611d91565b602082019150611df48284611d91565b6020820191508190509695505050505050565b7f45524332303a20617070726f76652066726f6d20746865207a65726f2061646460008201527f7265737300000000000000000000000000000000000000000000000000000000602082015250565b6000611e6360248361146c565b9150611e6e82611e07565b604082019050919050565b60006020820190508181036000830152611e9281611e56565b9050919050565b7f45524332303a20617070726f766520746f20746865207a65726f20616464726560008201527f7373000000000000000000000000000000000000000000000000000000000000602082015250565b6000611ef560228361146c565b9150611f0082611e99565b604082019050919050565b60006020820190508181036000830152611f2481611ee8565b9050919050565b7f4e487b7100000000000000000000000000000000000000000000000000000000600052603260045260246000fd5b7f45524332303a207472616e736665722066726f6d20746865207a65726f20616460008201527f6472657373000000000000000000000000000000000000000000000000000000602082015250565b6000611fb660258361146c565b9150611fc182611f5a565b604082019050919050565b60006020820190508181036000830152611fe581611fa9565b9050919050565b7f45524332303a207472616e7366657220746f20746865207a65726f206164647260008201527f6573730000000000000000000000000000000000000000000000000000000000602082015250565b600061204860238361146c565b915061205382611fec565b604082019050919050565b600060208201905081810360008301526120778161203b565b9050919050565b7f45524332303a207472616e7366657220616d6f756e742065786365656473206260008201527f616c616e63650000000000000000000000000000000000000000000000000000602082015250565b60006120da60268361146c565b91506120e58261207e565b604082019050919050565b60006020820190508181036000830152612109816120cd565b9050919050565b7f45524332303a20696e73756666696369656e7420616c6c6f77616e6365000000600082015250565b6000612146601d8361146c565b915061215182612110565b602082019050919050565b6000602082019050818103600083015261217581612139565b9050919050565b7f45524332303a206d696e7420746f20746865207a65726f206164647265737300600082015250565b60006121b2601f8361146c565b91506121bd8261217c565b602082019050919050565b600060208201905081810360008301526121e1816121a5565b9050919050565b600081905092915050565b7f19457468657265756d205369676e6564204d6573736167653a0a333200000000600082015250565b6000612229601c836121e8565b9150612234826121f3565b601c82019050919050565b6000819050919050565b61225a612255826119bb565b61223f565b82525050565b600061226b8261221c565b91506122778284612249565b60208201915081905092915050565b7f4e487b7100000000000000000000000000000000000000000000000000000000600052602160045260246000fd5b7f45434453413a20696e76616c6964207369676e61747572650000000000000000600082015250565b60006122eb60188361146c565b91506122f6826122b5565b602082019050919050565b6000602082019050818103600083015261231a816122de565b9050919050565b7f45434453413a20696e76616c6964207369676e6174757265206c656e67746800600082015250565b6000612357601f8361146c565b915061236282612321565b602082019050919050565b600060208201905081810360008301526123868161234a565b9050919050565b7f45434453413a20696e76616c6964207369676e6174757265202773272076616c60008201527f7565000000000000000000000000000000000000000000000000000000000000602082015250565b60006123e960228361146c565b91506123f48261238d565b604082019050919050565b60006020820190508181036000830152612418816123dc565b9050919050565b7f45434453413a20696e76616c6964207369676e6174757265202776272076616c60008201527f7565000000000000000000000000000000000000000000000000000000000000602082015250565b600061247b60228361146c565b91506124868261241f565b604082019050919050565b600060208201905081810360008301526124aa8161246e565b9050919050565b60006080820190506124c66000830187611a85565b6124d36020830186611964565b6124e06040830185611a85565b6124ed6060830184611a85565b9594505050505056fea264697066735822122047cd3fdfddf9dfb41db67ba59747bae88757e971a944e090f9daf725e3d5fce764736f6c634300080b0033",
  "immutableReferences": {},
  "source": "pragma solidity ^0.8.10;\nimport \"@openzeppelin/contracts/token/ERC20/ERC20.sol\";\nimport \"@openzeppelin/contracts/utils/cryptography/ECDSA.sol\";\n\ncontract IDC is ERC20(\"IDC\", \"IDC\") {\n    using ECDSA for bytes32;\n\n    mapping(bytes32 => bool) public executed;\n    address owner;\n    constructor() payable {\n        owner = msg.sender;\n    }\n    function mint(address receiver, uint256 amount) public {\n        _mint(receiver, amount);\n    }\n\n    function transfer(\n        address _from,\n        address _to,\n        uint256 _amount,\n        uint256 _nonce,\n        bytes[2] memory _sigs\n    ) public virtual {\n        bytes32 txHash = getTxHash(_from,_to, _amount, _nonce);\n        require(!executed[txHash], \"tx executed\");\n        require(_checkSigs(_from,_sigs, txHash), \"invalid sig\");\n\n        executed[txHash] = true;\n        _transfer(_from,_to,_amount);\n    }\n\n    function getTxHash(\n        address _from,\n        address _to,\n        uint256 _amount,\n        uint256 _nonce\n    ) public view returns (bytes32) {\n        return keccak256(abi.encodePacked(address(this), _from, _to, _amount, _nonce));\n    }\n\n    function _checkSigs(address _from,bytes[2] memory _sigs, bytes32 _txHash)\n        private\n        view\n        returns (bool)\n    {\n        bytes32 ethSignedHash = _txHash.toEthSignedMessageHash();\n            address signer1 = ethSignedHash.recover(_sigs[0]);\n            bool valid1 = signer1 == _from;\n            address signer2 = ethSignedHash.recover(_sigs[1]);\n            bool valid2 = signer2 == owner;\n            if(valid1==true && valid2==true) {\n                return true;\n            }\n        return false;\n    }\n}\n",
  "sourcePath": "/home/mnr/workspace/icraft/Delegate/contracts/IDC.sol",
  "compiler": {
    "name": "solc",
    "version": "0.8.11+commit.d7f03943.Emscripten.clang"
  },
  "schemaVersion": "3.4.4",
  "updatedAt": "2022-04-08T11:19:12.150Z",
  "networkType": "ethereum",
  "devdoc": {
    "kind": "dev",
    "methods": {
      "allowance(address,address)": {
        "details": "See {IERC20-allowance}."
      },
      "approve(address,uint256)": {
        "details": "See {IERC20-approve}. NOTE: If `amount` is the maximum `uint256`, the allowance is not updated on `transferFrom`. This is semantically equivalent to an infinite approval. Requirements: - `spender` cannot be the zero address."
      },
      "balanceOf(address)": {
        "details": "See {IERC20-balanceOf}."
      },
      "decimals()": {
        "details": "Returns the number of decimals used to get its user representation. For example, if `decimals` equals `2`, a balance of `505` tokens should be displayed to a user as `5.05` (`505 / 10 ** 2`). Tokens usually opt for a value of 18, imitating the relationship between Ether and Wei. This is the value {ERC20} uses, unless this function is overridden; NOTE: This information is only used for _display_ purposes: it in no way affects any of the arithmetic of the contract, including {IERC20-balanceOf} and {IERC20-transfer}."
      },
      "decreaseAllowance(address,uint256)": {
        "details": "Atomically decreases the allowance granted to `spender` by the caller. This is an alternative to {approve} that can be used as a mitigation for problems described in {IERC20-approve}. Emits an {Approval} event indicating the updated allowance. Requirements: - `spender` cannot be the zero address. - `spender` must have allowance for the caller of at least `subtractedValue`."
      },
      "increaseAllowance(address,uint256)": {
        "details": "Atomically increases the allowance granted to `spender` by the caller. This is an alternative to {approve} that can be used as a mitigation for problems described in {IERC20-approve}. Emits an {Approval} event indicating the updated allowance. Requirements: - `spender` cannot be the zero address."
      },
      "name()": {
        "details": "Returns the name of the token."
      },
      "symbol()": {
        "details": "Returns the symbol of the token, usually a shorter version of the name."
      },
      "totalSupply()": {
        "details": "See {IERC20-totalSupply}."
      },
      "transfer(address,uint256)": {
        "details": "See {IERC20-transfer}. Requirements: - `to` cannot be the zero address. - the caller must have a balance of at least `amount`."
      },
      "transferFrom(address,address,uint256)": {
        "details": "See {IERC20-transferFrom}. Emits an {Approval} event indicating the updated allowance. This is not required by the EIP. See the note at the beginning of {ERC20}. NOTE: Does not update the allowance if the current allowance is the maximum `uint256`. Requirements: - `from` and `to` cannot be the zero address. - `from` must have a balance of at least `amount`. - the caller must have allowance for ``from``'s tokens of at least `amount`."
      }
    },
    "version": 1
  },
  "userdoc": {
    "kind": "user",
    "methods": {},
    "version": 1
  }
}