{
  "contractName": "MultiSigWallet",
  "abi": [
    {
      "inputs": [
        {
          "internalType": "address[2]",
          "name": "_owners",
          "type": "address[2]"
        }
      ],
      "stateMutability": "payable",
      "type": "constructor",
      "payable": true
    },
    {
      "inputs": [
        {
          "internalType": "bytes32",
          "name": "",
          "type": "bytes32"
        }
      ],
      "name": "executed",
      "outputs": [
        {
          "internalType": "bool",
          "name": "",
          "type": "bool"
        }
      ],
      "stateMutability": "view",
      "type": "function",
      "constant": true
    },
    {
      "inputs": [
        {
          "internalType": "uint256",
          "name": "",
          "type": "uint256"
        }
      ],
      "name": "owners",
      "outputs": [
        {
          "internalType": "address",
          "name": "",
          "type": "address"
        }
      ],
      "stateMutability": "view",
      "type": "function",
      "constant": true
    },
    {
      "inputs": [],
      "name": "deposit",
      "outputs": [],
      "stateMutability": "payable",
      "type": "function",
      "payable": true
    },
    {
      "inputs": [
        {
          "internalType": "address",
          "name": "_to",
          "type": "address"
        },
        {
          "internalType": "uint256",
          "name": "_amount",
          "type": "uint256"
        },
        {
          "internalType": "uint256",
          "name": "_nonce",
          "type": "uint256"
        },
        {
          "internalType": "bytes[2]",
          "name": "_sigs",
          "type": "bytes[2]"
        }
      ],
      "name": "transfer",
      "outputs": [],
      "stateMutability": "nonpayable",
      "type": "function"
    },
    {
      "inputs": [
        {
          "internalType": "address",
          "name": "_to",
          "type": "address"
        },
        {
          "internalType": "uint256",
          "name": "_amount",
          "type": "uint256"
        },
        {
          "internalType": "uint256",
          "name": "_nonce",
          "type": "uint256"
        }
      ],
      "name": "getTxHash",
      "outputs": [
        {
          "internalType": "bytes32",
          "name": "",
          "type": "bytes32"
        }
      ],
      "stateMutability": "view",
      "type": "function",
      "constant": true
    }
  ],
  "bytecode": "0x608060405260405162001560380380620015608339818101604052810190620000299190620002bc565b8060009060026200003c92919062000044565b5050620002ee565b8260028101928215620000b3579160200282015b82811115620000b25782518260006101000a81548173ffffffffffffffffffffffffffffffffffffffff021916908373ffffffffffffffffffffffffffffffffffffffff1602179055509160200191906001019062000058565b5b509050620000c29190620000c6565b5090565b5b80821115620000e1576000816000905550600101620000c7565b5090565b6000604051905090565b600080fd5b600080fd5b6000601f19601f8301169050919050565b7f4e487b7100000000000000000000000000000000000000000000000000000000600052604160045260246000fd5b6200014482620000f9565b810181811067ffffffffffffffff821117156200016657620001656200010a565b5b80604052505050565b60006200017b620000e5565b905062000189828262000139565b919050565b600067ffffffffffffffff821115620001ac57620001ab6200010a565b5b602082029050919050565b600080fd5b600073ffffffffffffffffffffffffffffffffffffffff82169050919050565b6000620001e982620001bc565b9050919050565b620001fb81620001dc565b81146200020757600080fd5b50565b6000815190506200021b81620001f0565b92915050565b60006200023862000232846200018e565b6200016f565b90508060208402830185811115620002555762000254620001b7565b5b835b818110156200028257806200026d88826200020a565b84526020840193505060208101905062000257565b5050509392505050565b600082601f830112620002a457620002a3620000f4565b5b6002620002b384828562000221565b91505092915050565b600060408284031215620002d557620002d4620000ef565b5b6000620002e5848285016200028c565b91505092915050565b61126280620002fe6000396000f3fe60806040526004361061004a5760003560e01c8063025e7c271461004f578063207fa7831461008c57806378f16129146100c9578063a9fcfb33146100f2578063d0e30db01461012f575b600080fd5b34801561005b57600080fd5b50610076600480360381019061007191906107fd565b610139565b604051610083919061086b565b60405180910390f35b34801561009857600080fd5b506100b360048036038101906100ae91906108b2565b61016f565b6040516100c0919061091e565b60405180910390f35b3480156100d557600080fd5b506100f060048036038101906100eb9190610b53565b6101a7565b005b3480156100fe57600080fd5b5061011960048036038101906101149190610c02565b610293565b6040516101269190610c4a565b60405180910390f35b6101376102b3565b005b6000816002811061014957600080fd5b016000915054906101000a900473ffffffffffffffffffffffffffffffffffffffff1681565b6000308484846040516020016101889493929190610cce565b6040516020818303038152906040528051906020012090509392505050565b60006101b485858561016f565b90506002600082815260200190815260200160002060009054906101000a900460ff1615610217576040517f08c379a000000000000000000000000000000000000000000000000000000000815260040161020e90610d79565b60405180910390fd5b61022182826102b5565b610260576040517f08c379a000000000000000000000000000000000000000000000000000000000815260040161025790610de5565b60405180910390fd5b60016002600083815260200190815260200160002060006101000a81548160ff0219169083151502179055505050505050565b60026020528060005260406000206000915054906101000a900460ff1681565b565b6000806102c183610398565b905060005b600281101561038b5760006102fb8683600281106102e7576102e6610e05565b5b6020020151846103c890919063ffffffff16565b9050600080836002811061031257610311610e05565b5b0160009054906101000a900473ffffffffffffffffffffffffffffffffffffffff1673ffffffffffffffffffffffffffffffffffffffff168273ffffffffffffffffffffffffffffffffffffffff1614905080610376576000945050505050610392565b5050808061038390610e63565b9150506102c6565b5060019150505b92915050565b6000816040516020016103ab9190610f24565b604051602081830303815290604052805190602001209050919050565b60008060006103d785856103ef565b915091506103e481610472565b819250505092915050565b6000806041835114156104315760008060006020860151925060408601519150606086015160001a905061042587828585610647565b9450945050505061046b565b604083511415610462576000806020850151915060408501519050610457868383610754565b93509350505061046b565b60006002915091505b9250929050565b6000600481111561048657610485610f4a565b5b81600481111561049957610498610f4a565b5b14156104a457610644565b600160048111156104b8576104b7610f4a565b5b8160048111156104cb576104ca610f4a565b5b141561050c576040517f08c379a000000000000000000000000000000000000000000000000000000000815260040161050390610fc5565b60405180910390fd5b600260048111156105205761051f610f4a565b5b81600481111561053357610532610f4a565b5b1415610574576040517f08c379a000000000000000000000000000000000000000000000000000000000815260040161056b90611031565b60405180910390fd5b6003600481111561058857610587610f4a565b5b81600481111561059b5761059a610f4a565b5b14156105dc576040517f08c379a00000000000000000000000000000000000000000000000000000000081526004016105d3906110c3565b60405180910390fd5b6004808111156105ef576105ee610f4a565b5b81600481111561060257610601610f4a565b5b1415610643576040517f08c379a000000000000000000000000000000000000000000000000000000000815260040161063a90611155565b60405180910390fd5b5b50565b6000807f7fffffffffffffffffffffffffffffff5d576e7357a4501ddfe92f46681b20a08360001c111561068257600060039150915061074b565b601b8560ff161415801561069a5750601c8560ff1614155b156106ac57600060049150915061074b565b6000600187878787604051600081526020016040526040516106d19493929190611191565b6020604051602081039080840390855afa1580156106f3573d6000803e3d6000fd5b505050602060405103519050600073ffffffffffffffffffffffffffffffffffffffff168173ffffffffffffffffffffffffffffffffffffffff1614156107425760006001925092505061074b565b80600092509250505b94509492505050565b60008060007f7fffffffffffffffffffffffffffffffffffffffffffffffffffffffffffffff60001b841690506000601b60ff8660001c901c61079791906111d6565b90506107a587828885610647565b935093505050935093915050565b6000604051905090565b600080fd5b600080fd5b6000819050919050565b6107da816107c7565b81146107e557600080fd5b50565b6000813590506107f7816107d1565b92915050565b600060208284031215610813576108126107bd565b5b6000610821848285016107e8565b91505092915050565b600073ffffffffffffffffffffffffffffffffffffffff82169050919050565b60006108558261082a565b9050919050565b6108658161084a565b82525050565b6000602082019050610880600083018461085c565b92915050565b61088f8161084a565b811461089a57600080fd5b50565b6000813590506108ac81610886565b92915050565b6000806000606084860312156108cb576108ca6107bd565b5b60006108d98682870161089d565b93505060206108ea868287016107e8565b92505060406108fb868287016107e8565b9150509250925092565b6000819050919050565b61091881610905565b82525050565b6000602082019050610933600083018461090f565b92915050565b600080fd5b6000601f19601f8301169050919050565b7f4e487b7100000000000000000000000000000000000000000000000000000000600052604160045260246000fd5b6109878261093e565b810181811067ffffffffffffffff821117156109a6576109a561094f565b5b80604052505050565b60006109b96107b3565b90506109c5828261097e565b919050565b600067ffffffffffffffff8211156109e5576109e461094f565b5b602082029050919050565b600080fd5b600080fd5b600067ffffffffffffffff821115610a1557610a1461094f565b5b610a1e8261093e565b9050602081019050919050565b82818337600083830152505050565b6000610a4d610a48846109fa565b6109af565b905082815260208101848484011115610a6957610a686109f5565b5b610a74848285610a2b565b509392505050565b600082601f830112610a9157610a90610939565b5b8135610aa1848260208601610a3a565b91505092915050565b6000610abd610ab8846109ca565b6109af565b90508060208402830185811115610ad757610ad66109f0565b5b835b81811015610b1e57803567ffffffffffffffff811115610afc57610afb610939565b5b808601610b098982610a7c565b85526020850194505050602081019050610ad9565b5050509392505050565b600082601f830112610b3d57610b3c610939565b5b6002610b4a848285610aaa565b91505092915050565b60008060008060808587031215610b6d57610b6c6107bd565b5b6000610b7b8782880161089d565b9450506020610b8c878288016107e8565b9350506040610b9d878288016107e8565b925050606085013567ffffffffffffffff811115610bbe57610bbd6107c2565b5b610bca87828801610b28565b91505092959194509250565b610bdf81610905565b8114610bea57600080fd5b50565b600081359050610bfc81610bd6565b92915050565b600060208284031215610c1857610c176107bd565b5b6000610c2684828501610bed565b91505092915050565b60008115159050919050565b610c4481610c2f565b82525050565b6000602082019050610c5f6000830184610c3b565b92915050565b60008160601b9050919050565b6000610c7d82610c65565b9050919050565b6000610c8f82610c72565b9050919050565b610ca7610ca28261084a565b610c84565b82525050565b6000819050919050565b610cc8610cc3826107c7565b610cad565b82525050565b6000610cda8287610c96565b601482019150610cea8286610c96565b601482019150610cfa8285610cb7565b602082019150610d0a8284610cb7565b60208201915081905095945050505050565b600082825260208201905092915050565b7f7478206578656375746564000000000000000000000000000000000000000000600082015250565b6000610d63600b83610d1c565b9150610d6e82610d2d565b602082019050919050565b60006020820190508181036000830152610d9281610d56565b9050919050565b7f696e76616c696420736967000000000000000000000000000000000000000000600082015250565b6000610dcf600b83610d1c565b9150610dda82610d99565b602082019050919050565b60006020820190508181036000830152610dfe81610dc2565b9050919050565b7f4e487b7100000000000000000000000000000000000000000000000000000000600052603260045260246000fd5b7f4e487b7100000000000000000000000000000000000000000000000000000000600052601160045260246000fd5b6000610e6e826107c7565b91507fffffffffffffffffffffffffffffffffffffffffffffffffffffffffffffffff821415610ea157610ea0610e34565b5b600182019050919050565b600081905092915050565b7f19457468657265756d205369676e6564204d6573736167653a0a333200000000600082015250565b6000610eed601c83610eac565b9150610ef882610eb7565b601c82019050919050565b6000819050919050565b610f1e610f1982610905565b610f03565b82525050565b6000610f2f82610ee0565b9150610f3b8284610f0d565b60208201915081905092915050565b7f4e487b7100000000000000000000000000000000000000000000000000000000600052602160045260246000fd5b7f45434453413a20696e76616c6964207369676e61747572650000000000000000600082015250565b6000610faf601883610d1c565b9150610fba82610f79565b602082019050919050565b60006020820190508181036000830152610fde81610fa2565b9050919050565b7f45434453413a20696e76616c6964207369676e6174757265206c656e67746800600082015250565b600061101b601f83610d1c565b915061102682610fe5565b602082019050919050565b6000602082019050818103600083015261104a8161100e565b9050919050565b7f45434453413a20696e76616c6964207369676e6174757265202773272076616c60008201527f7565000000000000000000000000000000000000000000000000000000000000602082015250565b60006110ad602283610d1c565b91506110b882611051565b604082019050919050565b600060208201905081810360008301526110dc816110a0565b9050919050565b7f45434453413a20696e76616c6964207369676e6174757265202776272076616c60008201527f7565000000000000000000000000000000000000000000000000000000000000602082015250565b600061113f602283610d1c565b915061114a826110e3565b604082019050919050565b6000602082019050818103600083015261116e81611132565b9050919050565b600060ff82169050919050565b61118b81611175565b82525050565b60006080820190506111a6600083018761090f565b6111b36020830186611182565b6111c0604083018561090f565b6111cd606083018461090f565b95945050505050565b60006111e1826107c7565b91506111ec836107c7565b9250827fffffffffffffffffffffffffffffffffffffffffffffffffffffffffffffffff0382111561122157611220610e34565b5b82820190509291505056fea264697066735822122007ec889666857b5f4146ce73645699273061c33b307c7d1cc277831bd1ceafbb64736f6c634300080b0033",
  "immutableReferences": {},
  "source": "pragma solidity ^0.8.10;\npragma experimental ABIEncoderV2;\n\nimport \"@openzeppelin/contracts/utils/cryptography/ECDSA.sol\";\n\ncontract MultiSigWallet {\n    using ECDSA for bytes32;\n\n    address[2] public owners;\n    mapping(bytes32 => bool) public executed;\n\n    constructor(address[2] memory _owners) payable {\n        owners = _owners;\n    }\n\n    function deposit() external payable {}\n\n    function transfer(\n        address _to,\n        uint _amount,\n        uint _nonce,\n        bytes[2] memory _sigs\n    ) external {\n        bytes32 txHash = getTxHash(_to, _amount, _nonce);\n        require(!executed[txHash], \"tx executed\");\n        require(_checkSigs(_sigs, txHash), \"invalid sig\");\n\n        executed[txHash] = true;\n\n     //   (bool sent, ) = _to.call{value: _amount}(\"\");\n      //  require(sent, \"Failed to send Ether\");\n    }\n\n    function getTxHash(\n        address _to,\n        uint _amount,\n        uint _nonce\n    ) public view returns (bytes32) {\n        return keccak256(abi.encodePacked(address(this), _to, _amount, _nonce));\n    }\n\n    function _checkSigs(bytes[2] memory _sigs, bytes32 _txHash)\n        private\n        view\n        returns (bool)\n    {\n        bytes32 ethSignedHash = _txHash.toEthSignedMessageHash();\n\n        for (uint i = 0; i < _sigs.length; i++) {\n            address signer = ethSignedHash.recover(_sigs[i]);\n            bool valid = signer == owners[i];\n\n            if (!valid) {\n                return false;\n            }\n        }\n\n        return true;\n    }\n}\n",
  "sourcePath": "/home/mnr/workspace/icraft/Delegate/contracts/MultiSigWallet.sol",
  "compiler": {
    "name": "solc",
    "version": "0.8.11+commit.d7f03943.Emscripten.clang"
  },
  "schemaVersion": "3.4.4",
  "updatedAt": "2022-04-08T11:19:11.740Z",
  "networkType": "ethereum",
  "devdoc": {
    "kind": "dev",
    "methods": {},
    "version": 1
  },
  "userdoc": {
    "kind": "user",
    "methods": {},
    "version": 1
  }
}